{
  "contractName": "BettingContract",
  "abi": [
    {
      "inputs": [],
      "stateMutability": "nonpayable",
      "type": "constructor"
    },
    {
      "inputs": [
        {
          "internalType": "string",
          "name": "_betReason",
          "type": "string"
        },
        {
          "internalType": "uint256",
          "name": "_amount",
          "type": "uint256"
        },
        {
          "internalType": "address payable",
          "name": "_firstAddress",
          "type": "address"
        },
        {
          "internalType": "address payable",
          "name": "_secondAddress",
          "type": "address"
        },
        {
          "internalType": "address payable",
          "name": "_thirdParty",
          "type": "address"
        }
      ],
      "name": "createBet",
      "outputs": [
        {
          "internalType": "uint256",
          "name": "",
          "type": "uint256"
        }
      ],
      "stateMutability": "nonpayable",
      "type": "function"
    },
    {
      "inputs": [
        {
          "internalType": "uint256",
          "name": "betId",
          "type": "uint256"
        }
      ],
      "name": "approveBet",
      "outputs": [],
      "stateMutability": "nonpayable",
      "type": "function"
    },
    {
      "inputs": [
        {
          "internalType": "uint256",
          "name": "betId",
          "type": "uint256"
        }
      ],
      "name": "transferFundsForBet",
      "outputs": [],
      "stateMutability": "payable",
      "type": "function",
      "payable": true
    },
    {
      "inputs": [
        {
          "internalType": "uint256",
          "name": "betId",
          "type": "uint256"
        },
        {
          "internalType": "address payable",
          "name": "winner",
          "type": "address"
        }
      ],
      "name": "performBetDecision",
      "outputs": [],
      "stateMutability": "payable",
      "type": "function",
      "payable": true
    },
    {
      "inputs": [
        {
          "internalType": "uint256",
          "name": "betId",
          "type": "uint256"
        }
      ],
      "name": "getBetReason",
      "outputs": [
        {
          "internalType": "string",
          "name": "",
          "type": "string"
        }
      ],
      "stateMutability": "view",
      "type": "function",
      "constant": true
    },
    {
      "inputs": [
        {
          "internalType": "uint256",
          "name": "betId",
          "type": "uint256"
        }
      ],
      "name": "getBetAmount",
      "outputs": [
        {
          "internalType": "uint256",
          "name": "",
          "type": "uint256"
        }
      ],
      "stateMutability": "view",
      "type": "function",
      "constant": true
    },
    {
      "inputs": [
        {
          "internalType": "uint256",
          "name": "betId",
          "type": "uint256"
        }
      ],
      "name": "getBetFirstBetter",
      "outputs": [
        {
          "internalType": "address",
          "name": "",
          "type": "address"
        }
      ],
      "stateMutability": "view",
      "type": "function",
      "constant": true
    },
    {
      "inputs": [
        {
          "internalType": "uint256",
          "name": "betId",
          "type": "uint256"
        }
      ],
      "name": "getBetSecondtBetter",
      "outputs": [
        {
          "internalType": "address",
          "name": "",
          "type": "address"
        }
      ],
      "stateMutability": "view",
      "type": "function",
      "constant": true
    },
    {
      "inputs": [
        {
          "internalType": "uint256",
          "name": "betId",
          "type": "uint256"
        }
      ],
      "name": "getBetThirdParty",
      "outputs": [
        {
          "internalType": "address",
          "name": "",
          "type": "address"
        }
      ],
      "stateMutability": "view",
      "type": "function",
      "constant": true
    },
    {
      "inputs": [],
      "name": "getLastBetId",
      "outputs": [
        {
          "internalType": "uint256",
          "name": "",
          "type": "uint256"
        }
      ],
      "stateMutability": "view",
      "type": "function",
      "constant": true
    }
  ],
  "bytecode": "0x608060405234801561001057600080fd5b506000808190555061271e806100276000396000f3fe6080604052600436106100915760003560e01c80639ceb0983116100595780639ceb0983146101b3578063b30187a5146101cf578063b4a8901a146101fa578063da24d2b114610237578063fd86611e1461025357610091565b806327963395146100965780632c19b0a3146100bf5780635b272bfe146100fc5780635c270459146101395780638c78bf8314610176575b600080fd5b3480156100a257600080fd5b506100bd60048036038101906100b891906119d4565b610290565b005b3480156100cb57600080fd5b506100e660048036038101906100e191906119d4565b610795565b6040516100f39190611c97565b60405180910390f35b34801561010857600080fd5b50610123600480360381019061011e91906119d4565b6107d5565b6040516101309190611c97565b60405180910390f35b34801561014557600080fd5b50610160600480360381019061015b919061193d565b610815565b60405161016d9190611e74565b60405180910390f35b34801561018257600080fd5b5061019d600480360381019061019891906119d4565b610bc8565b6040516101aa9190611e74565b60405180910390f35b6101cd60048036038101906101c891906119d4565b610be8565b005b3480156101db57600080fd5b506101e46111dc565b6040516101f19190611e74565b60405180910390f35b34801561020657600080fd5b50610221600480360381019061021c91906119d4565b6111e5565b60405161022e9190611c97565b60405180910390f35b610251600480360381019061024c9190611a01565b611225565b005b34801561025f57600080fd5b5061027a600480360381019061027591906119d4565b6115be565b6040516102879190611cb2565b60405180910390f35b803373ffffffffffffffffffffffffffffffffffffffff166001600083815260200190815260200160002060020160009054906101000a900473ffffffffffffffffffffffffffffffffffffffff1673ffffffffffffffffffffffffffffffffffffffff16148061036257503373ffffffffffffffffffffffffffffffffffffffff166001600083815260200190815260200160002060030160009054906101000a900473ffffffffffffffffffffffffffffffffffffffff1673ffffffffffffffffffffffffffffffffffffffff16145b806103ce57503373ffffffffffffffffffffffffffffffffffffffff166001600083815260200190815260200160002060040160009054906101000a900473ffffffffffffffffffffffffffffffffffffffff1673ffffffffffffffffffffffffffffffffffffffff16145b61040d576040517f08c379a000000000000000000000000000000000000000000000000000000000815260040161040490611e14565b60405180910390fd5b3373ffffffffffffffffffffffffffffffffffffffff166001600084815260200190815260200160002060020160009054906101000a900473ffffffffffffffffffffffffffffffffffffffff1673ffffffffffffffffffffffffffffffffffffffff1614806104de57503373ffffffffffffffffffffffffffffffffffffffff166001600084815260200190815260200160002060030160009054906101000a900473ffffffffffffffffffffffffffffffffffffffff1673ffffffffffffffffffffffffffffffffffffffff16145b8061054a57503373ffffffffffffffffffffffffffffffffffffffff166001600084815260200190815260200160002060040160009054906101000a900473ffffffffffffffffffffffffffffffffffffffff1673ffffffffffffffffffffffffffffffffffffffff16145b610589576040517f08c379a000000000000000000000000000000000000000000000000000000000815260040161058090611e14565b60405180910390fd5b60005b600260008481526020019081526020016000208054905081101561067b573373ffffffffffffffffffffffffffffffffffffffff166002600085815260200190815260200160002082815481106105e6576105e56121e5565b5b9060005260206000200160009054906101000a900473ffffffffffffffffffffffffffffffffffffffff1673ffffffffffffffffffffffffffffffffffffffff161415610668576040517f08c379a000000000000000000000000000000000000000000000000000000000815260040161065f90611d94565b60405180910390fd5b8080610673906120af565b91505061058c565b5060026000838152602001908152602001600020339080600181540180825580915050600190039060005260206000200160009091909190916101000a81548173ffffffffffffffffffffffffffffffffffffffff021916908373ffffffffffffffffffffffffffffffffffffffff16021790555061071960018060008581526020019081526020016000206007015461166690919063ffffffff16565b600160008481526020019081526020016000206007018190555060036001600084815260200190815260200160002060070154141561079157600180600084815260200190815260200160002060060160006101000a81548160ff0219169083600381111561078b5761078a612187565b5b02179055505b5050565b60006001600083815260200190815260200160002060020160009054906101000a900473ffffffffffffffffffffffffffffffffffffffff169050919050565b60006001600083815260200190815260200160002060030160009054906101000a900473ffffffffffffffffffffffffffffffffffffffff169050919050565b600084600061082e60018361167c90919063ffffffff16565b1461086e576040517f08c379a000000000000000000000000000000000000000000000000000000000815260040161086590611d74565b60405180910390fd5b8373ffffffffffffffffffffffffffffffffffffffff168573ffffffffffffffffffffffffffffffffffffffff16141580156108d657508273ffffffffffffffffffffffffffffffffffffffff168473ffffffffffffffffffffffffffffffffffffffff1614155b801561090e57508273ffffffffffffffffffffffffffffffffffffffff168573ffffffffffffffffffffffffffffffffffffffff1614155b61094d576040517f08c379a000000000000000000000000000000000000000000000000000000000815260040161094490611d34565b60405180910390fd5b60008054905061095b6116a8565b6109636116ca565b6040518061012001604052808b81526020018a81526020018973ffffffffffffffffffffffffffffffffffffffff1681526020018873ffffffffffffffffffffffffffffffffffffffff1681526020018773ffffffffffffffffffffffffffffffffffffffff168152602001848152602001600060038111156109e9576109e8612187565b5b8152602001600081526020016000815250600160008581526020019081526020016000206000820151816000019080519060200190610a299291906116ec565b506020820151816001015560408201518160020160006101000a81548173ffffffffffffffffffffffffffffffffffffffff021916908373ffffffffffffffffffffffffffffffffffffffff16021790555060608201518160030160006101000a81548173ffffffffffffffffffffffffffffffffffffffff021916908373ffffffffffffffffffffffffffffffffffffffff16021790555060808201518160040160006101000a81548173ffffffffffffffffffffffffffffffffffffffff021916908373ffffffffffffffffffffffffffffffffffffffff16021790555060a0820151816005015560c08201518160060160006101000a81548160ff02191690836003811115610b3e57610b3d612187565b5b021790555060e0820151816007015561010082015181600801559050508160026000858152602001908152602001600020906003610b7d929190611772565b508060036000858152602001908152602001600020906002610ba09291906117fc565b50600080815480929190610bb3906120af565b91905055508294505050505095945050505050565b600060016000838152602001908152602001600020600101549050919050565b803373ffffffffffffffffffffffffffffffffffffffff166001600083815260200190815260200160002060020160009054906101000a900473ffffffffffffffffffffffffffffffffffffffff1673ffffffffffffffffffffffffffffffffffffffff161480610cba57503373ffffffffffffffffffffffffffffffffffffffff166001600083815260200190815260200160002060030160009054906101000a900473ffffffffffffffffffffffffffffffffffffffff1673ffffffffffffffffffffffffffffffffffffffff16145b80610d2657503373ffffffffffffffffffffffffffffffffffffffff166001600083815260200190815260200160002060040160009054906101000a900473ffffffffffffffffffffffffffffffffffffffff1673ffffffffffffffffffffffffffffffffffffffff16145b610d65576040517f08c379a0000000000000000000000000000000000000000000000000000000008152600401610d5c90611e14565b60405180910390fd5b6001600083815260200190815260200160002060040160009054906101000a900473ffffffffffffffffffffffffffffffffffffffff1673ffffffffffffffffffffffffffffffffffffffff163373ffffffffffffffffffffffffffffffffffffffff161415610e0a576040517f08c379a0000000000000000000000000000000000000000000000000000000008152600401610e0190611dd4565b60405180910390fd5b60016003811115610e1e57610e1d612187565b5b6001600084815260200190815260200160002060060160009054906101000a900460ff166003811115610e5457610e53612187565b5b14610e94576040517f08c379a0000000000000000000000000000000000000000000000000000000008152600401610e8b90611df4565b60405180910390fd5b60005b6003600084815260200190815260200160002080549050811015610f86573373ffffffffffffffffffffffffffffffffffffffff16600360008581526020019081526020016000208281548110610ef157610ef06121e5565b5b9060005260206000200160009054906101000a900473ffffffffffffffffffffffffffffffffffffffff1673ffffffffffffffffffffffffffffffffffffffff161415610f73576040517f08c379a0000000000000000000000000000000000000000000000000000000008152600401610f6a90611cd4565b60405180910390fd5b8080610f7e906120af565b915050610e97565b5060016000838152602001908152602001600020600101543414610fdf576040517f08c379a0000000000000000000000000000000000000000000000000000000008152600401610fd690611cf4565b60405180910390fd5b60006001600084815260200190815260200160002060040160009054906101000a900473ffffffffffffffffffffffffffffffffffffffff1673ffffffffffffffffffffffffffffffffffffffff163460405161103b90611c82565b60006040518083038185875af1925050503d8060008114611078576040519150601f19603f3d011682016040523d82523d6000602084013e61107d565b606091505b50509050806110c1576040517f08c379a00000000000000000000000000000000000000000000000000000000081526004016110b890611db4565b60405180910390fd5b60036000848152602001908152602001600020339080600181540180825580915050600190039060005260206000200160009091909190916101000a81548173ffffffffffffffffffffffffffffffffffffffff021916908373ffffffffffffffffffffffffffffffffffffffff16021790555061115e60018060008681526020019081526020016000206008015461166690919063ffffffff16565b60016000858152602001908152602001600020600801819055506002600160008581526020019081526020016000206008015414156111d75760026001600085815260200190815260200160002060060160006101000a81548160ff021916908360038111156111d1576111d0612187565b5b02179055505b505050565b60008054905090565b60006001600083815260200190815260200160002060040160009054906101000a900473ffffffffffffffffffffffffffffffffffffffff169050919050565b6001600083815260200190815260200160002060040160009054906101000a900473ffffffffffffffffffffffffffffffffffffffff1673ffffffffffffffffffffffffffffffffffffffff163373ffffffffffffffffffffffffffffffffffffffff16146112c9576040517f08c379a00000000000000000000000000000000000000000000000000000000081526004016112c090611d54565b60405180910390fd5b600260038111156112dd576112dc612187565b5b6001600084815260200190815260200160002060060160009054906101000a900460ff16600381111561131357611312612187565b5b14611353576040517f08c379a000000000000000000000000000000000000000000000000000000000815260040161134a90611e54565b60405180910390fd5b6001600083815260200190815260200160002060020160009054906101000a900473ffffffffffffffffffffffffffffffffffffffff1673ffffffffffffffffffffffffffffffffffffffff168173ffffffffffffffffffffffffffffffffffffffff16148061142457506001600083815260200190815260200160002060030160009054906101000a900473ffffffffffffffffffffffffffffffffffffffff1673ffffffffffffffffffffffffffffffffffffffff168173ffffffffffffffffffffffffffffffffffffffff16145b611463576040517f08c379a000000000000000000000000000000000000000000000000000000000815260040161145a90611d14565b60405180910390fd5b61148d6002600160008581526020019081526020016000206001015461169290919063ffffffff16565b34146114ce576040517f08c379a00000000000000000000000000000000000000000000000000000000081526004016114c590611e34565b60405180910390fd5b60008173ffffffffffffffffffffffffffffffffffffffff16346040516114f490611c82565b60006040518083038185875af1925050503d8060008114611531576040519150601f19603f3d011682016040523d82523d6000602084013e611536565b606091505b505090508061157a576040517f08c379a000000000000000000000000000000000000000000000000000000000815260040161157190611db4565b60405180910390fd5b60036001600085815260200190815260200160002060060160006101000a81548160ff021916908360038111156115b4576115b3612187565b5b0217905550505050565b60606001600083815260200190815260200160002060000180546115e19061204c565b80601f016020809104026020016040519081016040528092919081815260200182805461160d9061204c565b801561165a5780601f1061162f5761010080835404028352916020019161165a565b820191906000526020600020905b81548152906001019060200180831161163d57829003601f168201915b50505050509050919050565b600081836116749190611f0c565b905092915050565b6000818361168a91906120f8565b905092915050565b600081836116a09190611f62565b905092915050565b6040518060600160405280600390602082028036833780820191505090505090565b6040518060400160405280600290602082028036833780820191505090505090565b8280546116f89061204c565b90600052602060002090601f01602090048101928261171a5760008555611761565b82601f1061173357805160ff1916838001178555611761565b82800160010185558215611761579182015b82811115611760578251825591602001919060010190611745565b5b50905061176e9190611886565b5090565b8280548282559060005260206000209081019282156117eb579160200282015b828111156117ea5782518260006101000a81548173ffffffffffffffffffffffffffffffffffffffff021916908373ffffffffffffffffffffffffffffffffffffffff16021790555091602001919060010190611792565b5b5090506117f89190611886565b5090565b828054828255906000526020600020908101928215611875579160200282015b828111156118745782518260006101000a81548173ffffffffffffffffffffffffffffffffffffffff021916908373ffffffffffffffffffffffffffffffffffffffff1602179055509160200191906001019061181c565b5b5090506118829190611886565b5090565b5b8082111561189f576000816000905550600101611887565b5090565b60006118b66118b184611eb4565b611e8f565b9050828152602081018484840111156118d2576118d1612248565b5b6118dd84828561200a565b509392505050565b6000813590506118f4816126ba565b92915050565b600082601f83011261190f5761190e612243565b5b813561191f8482602086016118a3565b91505092915050565b600081359050611937816126d1565b92915050565b600080600080600060a0868803121561195957611958612252565b5b600086013567ffffffffffffffff8111156119775761197661224d565b5b611983888289016118fa565b955050602061199488828901611928565b94505060406119a5888289016118e5565b93505060606119b6888289016118e5565b92505060806119c7888289016118e5565b9150509295509295909350565b6000602082840312156119ea576119e9612252565b5b60006119f884828501611928565b91505092915050565b60008060408385031215611a1857611a17612252565b5b6000611a2685828601611928565b9250506020611a37858286016118e5565b9150509250929050565b611a4a81611fbc565b82525050565b6000611a5b82611ee5565b611a658185611efb565b9350611a75818560208601612019565b611a7e81612257565b840191505092915050565b6000611a96601f83611efb565b9150611aa182612268565b602082019050919050565b6000611ab9604b83611efb565b9150611ac482612291565b606082019050919050565b6000611adc603083611efb565b9150611ae782612306565b604082019050919050565b6000611aff604783611efb565b9150611b0a82612355565b606082019050919050565b6000611b22605183611efb565b9150611b2d826123ca565b606082019050919050565b6000611b45601c83611efb565b9150611b508261243f565b602082019050919050565b6000611b68602183611efb565b9150611b7382612468565b604082019050919050565b6000611b8b601283611efb565b9150611b96826124b7565b602082019050919050565b6000611bae600083611ef0565b9150611bb9826124e0565b600082019050919050565b6000611bd1603383611efb565b9150611bdc826124e3565b604082019050919050565b6000611bf4602d83611efb565b9150611bff82612532565b604082019050919050565b6000611c17601d83611efb565b9150611c2282612581565b602082019050919050565b6000611c3a603b83611efb565b9150611c45826125aa565b604082019050919050565b6000611c5d608a83611efb565b9150611c68826125f9565b60a082019050919050565b611c7c81612000565b82525050565b6000611c8d82611ba1565b9150819050919050565b6000602082019050611cac6000830184611a41565b92915050565b60006020820190508181036000830152611ccc8184611a50565b905092915050565b60006020820190508181036000830152611ced81611a89565b9050919050565b60006020820190508181036000830152611d0d81611aac565b9050919050565b60006020820190508181036000830152611d2d81611acf565b9050919050565b60006020820190508181036000830152611d4d81611af2565b9050919050565b60006020820190508181036000830152611d6d81611b15565b9050919050565b60006020820190508181036000830152611d8d81611b38565b9050919050565b60006020820190508181036000830152611dad81611b5b565b9050919050565b60006020820190508181036000830152611dcd81611b7e565b9050919050565b60006020820190508181036000830152611ded81611bc4565b9050919050565b60006020820190508181036000830152611e0d81611be7565b9050919050565b60006020820190508181036000830152611e2d81611c0a565b9050919050565b60006020820190508181036000830152611e4d81611c2d565b9050919050565b60006020820190508181036000830152611e6d81611c50565b9050919050565b6000602082019050611e896000830184611c73565b92915050565b6000611e99611eaa565b9050611ea5828261207e565b919050565b6000604051905090565b600067ffffffffffffffff821115611ecf57611ece612214565b5b611ed882612257565b9050602081019050919050565b600081519050919050565b600081905092915050565b600082825260208201905092915050565b6000611f1782612000565b9150611f2283612000565b9250827fffffffffffffffffffffffffffffffffffffffffffffffffffffffffffffffff03821115611f5757611f56612129565b5b828201905092915050565b6000611f6d82612000565b9150611f7883612000565b9250817fffffffffffffffffffffffffffffffffffffffffffffffffffffffffffffffff0483118215151615611fb157611fb0612129565b5b828202905092915050565b6000611fc782611fe0565b9050919050565b6000611fd982611fe0565b9050919050565b600073ffffffffffffffffffffffffffffffffffffffff82169050919050565b6000819050919050565b82818337600083830152505050565b60005b8381101561203757808201518184015260208101905061201c565b83811115612046576000848401525b50505050565b6000600282049050600182168061206457607f821691505b60208210811415612078576120776121b6565b5b50919050565b61208782612257565b810181811067ffffffffffffffff821117156120a6576120a5612214565b5b80604052505050565b60006120ba82612000565b91507fffffffffffffffffffffffffffffffffffffffffffffffffffffffffffffffff8214156120ed576120ec612129565b5b600182019050919050565b600061210382612000565b915061210e83612000565b92508261211e5761211d612158565b5b828206905092915050565b7f4e487b7100000000000000000000000000000000000000000000000000000000600052601160045260246000fd5b7f4e487b7100000000000000000000000000000000000000000000000000000000600052601260045260246000fd5b7f4e487b7100000000000000000000000000000000000000000000000000000000600052602160045260246000fd5b7f4e487b7100000000000000000000000000000000000000000000000000000000600052602260045260246000fd5b7f4e487b7100000000000000000000000000000000000000000000000000000000600052603260045260246000fd5b7f4e487b7100000000000000000000000000000000000000000000000000000000600052604160045260246000fd5b600080fd5b600080fd5b600080fd5b600080fd5b6000601f19601f8301169050919050565b7f596f75206861766520616c72656164792066756e646564207468652062657400600082015250565b7f54686520616d6f756e7420696e707574746564206973206e6f7420657175616c60008201527f20746f2074686520616d6f756e7420796f752061726520737570706f7365642060208201527f746f206265742077697468000000000000000000000000000000000000000000604082015250565b7f5468652070726f76696465642061646472657373206973206e6f74206120626560008201527f74746572206f6620746869732062657400000000000000000000000000000000602082015250565b7f416c6c20746872656520616464726573732070617274696369706174696e672060008201527f696e2074686520626574206d75737420626520646966666572656e742061646460208201527f7265737365732e00000000000000000000000000000000000000000000000000604082015250565b7f596f7520617265206e6f74207468652074686972642070617274792c20796f7560008201527f20617265206e6f7420616c6c6f77656420746f20706572666f726d206120646560208201527f636973696f6e206f6e2074686520626574000000000000000000000000000000604082015250565b7f546865206e756d626572206973206e6f7420616e20696e746567657200000000600082015250565b7f596f75206861766520616c726561647920617070726f7665642074686520626560008201527f7400000000000000000000000000000000000000000000000000000000000000602082015250565b7f5472616e73616374696f6e206661696c65640000000000000000000000000000600082015250565b50565b7f596f7520617265207468652074686972642070617274792e20596f752061726560008201527f206e6f7420616c6c6f77656420746f2062657400000000000000000000000000602082015250565b7f54686520626574206973207374696c6c20696e2070726f63657373206f66206260008201527f65696e6720617070726f76656400000000000000000000000000000000000000602082015250565b7f596f752061726520206e6f742070617274206f66207468697320626574000000600082015250565b7f5468652076616c756520696e707574746564206973206e6f742074686520616d60008201527f6d6f756e7420746f206769766520746f207468652077696e6e65720000000000602082015250565b7f54686520626574206861732065697468657220616c7265616479206265656e2060008201527f636f6d706c657465642c206f72206973206e6f7420617070726f76656420627960208201527f20616c6c207061727469636970616e7473207965742c206f72206e6f7420616c60408201527f6c207061727469636970616e74732068617665207472616e736665727265642060608201527f66756e6473207965742e00000000000000000000000000000000000000000000608082015250565b6126c381611fce565b81146126ce57600080fd5b50565b6126da81612000565b81146126e557600080fd5b5056fea26469706673582212208eb325a1555f72dc558a88cd3349346fba07db92878ba8324ffa4cf450da368d64736f6c63430008070033",
  "immutableReferences": {},
  "source": "pragma solidity ^0.8.0;\n\nimport \"@openzeppelin/contracts/utils/math/SafeMath.sol\";\n\ncontract BettingContract{\n\n    using SafeMath for uint256;\n    \n    uint256 numberOfBets;\n\n    enum State{ await_approval, await_funds, await_decision, completed }\n\n    struct Bet {\n        string betReason;\n        uint256 amountToBet;\n        address payable firstBetter;\n        address payable secondBetter;\n        address payable thirdParty;\n        uint256 betId;\n        State state;\n        uint256 addressWhichApproved;\n        uint256 addressWhichFunded;\n    }\n    \n\n    mapping (uint => Bet) betList;\n\n    mapping (uint256 => address[]) betIdToApprove;\n    mapping (uint256 => address[]) adressFundedBet;\n\n    constructor() public {\n        numberOfBets = 0;\n    }\n\n    modifier checkPartOfBet(uint256 betId){ \n        require(betList[betId].firstBetter == msg.sender || betList[betId].secondBetter == msg.sender || betList[betId].thirdParty == msg.sender, \"You are  not part of this bet\");\n        _;\n    }\n\n    modifier checkIntergerOnly (uint256 integerToCheck) {\n        require(integerToCheck.mod(1) == 0,\"The number is not an integer\");\n        _;\n    }\n\n\n    function createBet(string memory _betReason,uint256 _amount, address payable _firstAddress, address payable _secondAddress, address payable _thirdParty ) public  checkIntergerOnly (_amount) returns(uint256){\n\n        require(_firstAddress != _secondAddress && _secondAddress!= _thirdParty && _firstAddress!= _thirdParty, \"All three address participating in the bet must be different addresses.\");\n\n        uint256 betId = numberOfBets;\n        address[3] memory adressesToApprove;\n        address[2] memory addressesToFund;\n        \n        betList[betId] = Bet(_betReason,_amount, _firstAddress, _secondAddress, _thirdParty, betId, State.await_approval, 0, 0);\n        betIdToApprove[betId] = adressesToApprove;\n        adressFundedBet[betId] = addressesToFund;\n        numberOfBets++;\n        return betId;\n    }\n\n    \n    function approveBet(uint256 betId) external checkPartOfBet(betId) {\n        require(betList[betId].firstBetter == msg.sender || betList[betId].secondBetter == msg.sender || betList[betId].thirdParty == msg.sender, \"You are  not part of this bet\");\n\n        for(uint256 i = 0; i < betIdToApprove[betId].length; i++){\n\n            if(betIdToApprove[betId][i] == msg.sender){\n                revert(\"You have already approved the bet\");\n            }\n        }\n\n        betIdToApprove[betId].push(msg.sender);\n        betList[betId].addressWhichApproved = betList[betId].addressWhichApproved.add(1);\n\n        //Hard coded because for some reason when I put betIdToApprove[IdBet].length, it does not work, the length of the array is  supposed to be 3 because there are only  3 different participants in a bet\n        if(betList[betId].addressWhichApproved == 3 ){\n            betList[betId].state = State.await_funds;\n        } \n    }\n\n\n    function transferFundsForBet(uint256 betId) external payable checkPartOfBet(betId) {\n        require(msg.sender != betList[betId].thirdParty, \"You are the third party. You are not allowed to bet\");\n        require(betList[betId].state == State.await_funds, \"The bet is still in process of being approved\");\n\n        for(uint256 i = 0; i< adressFundedBet[betId].length; i++){\n\n            if(adressFundedBet[betId][i] == msg.sender){\n\n                revert(\"You have already funded the bet\");\n\n            }\n        }\n        \n        require(msg.value == betList[betId].amountToBet, \"The amount inputted is not equal to the amount you are supposed to bet with\");\n\n        (bool success, ) = betList[betId].thirdParty.call{value: msg.value}(\"\");\n        require(success, \"Transaction failed\");\n\n        adressFundedBet[betId].push(msg.sender);\n        betList[betId].addressWhichFunded = betList[betId].addressWhichFunded.add(1);\n        \n        //Hard coded because for some reason when I put adressFundedBet[betId].length, it does not work, the number of participants that will transfer funds in a bet is 2, that is why I put == to 2\n        if(betList[betId].addressWhichFunded == 2){\n            betList[betId].state = State.await_decision;\n        }\n    }\n\n    function performBetDecision(uint betId, address payable winner) external payable {\n        require(msg.sender == betList[betId].thirdParty,\"You are not the third party, you are not allowed to perform a decision on the bet\");\n        require(betList[betId].state == State.await_decision, \"The bet has either already been completed, or is not approved by all participants yet, or not all participants have transferred funds yet.\");\n        require(winner == betList[betId].firstBetter || winner == betList[betId].secondBetter, \"The provided address is not a better of this bet\");\n\n        require(msg.value == betList[betId].amountToBet.mul(2), \"The value inputted is not the ammount to give to the winner\");\n\n        (bool success, ) = winner.call{value: msg.value}(\"\");\n        require(success, \"Transaction failed\");\n\n        betList[betId].state = State.completed;\n        \n    }\n\n    //--------------------- view functions ---------------------\n\n\n    function getBetReason(uint256 betId) external view returns(string memory){\n\n        return betList[betId].betReason;\n\n    }\n\n    function getBetAmount(uint256 betId) external view returns(uint256){\n\n        return betList[betId].amountToBet;\n\n    }\n\n    function getBetFirstBetter(uint256 betId) external view returns(address){\n\n        return betList[betId].firstBetter;\n\n    }\n    \n    function getBetSecondtBetter(uint256 betId) external view returns(address){\n\n        return betList[betId].secondBetter;\n\n    }\n\n    function getBetThirdParty(uint256 betId) external view returns(address){\n\n        return betList[betId].thirdParty;\n\n    }\n\n    function getLastBetId()external view returns(uint256){\n        return numberOfBets;\n    }\n\n} ",
  "sourcePath": "/Users/tombeck/Desktop/Tous les folders/SmartContracts/BettingContractProject/BettingContract/contracts/bettingContract.sol",
  "compiler": {
    "name": "solc",
    "version": "0.8.7+commit.e28d00a7.Emscripten.clang"
  },
  "schemaVersion": "3.4.1",
  "updatedAt": "2021-08-18T16:38:02.064Z",
  "networkType": "ethereum",
  "devdoc": {
    "kind": "dev",
    "methods": {},
    "version": 1
  },
  "userdoc": {
    "kind": "user",
    "methods": {},
    "version": 1
  }
}